:020000022000DC
:1060000000000120F1680200196902001B6902000A
:106010001D6902001F6902002169020000000000E2
:1060200000000000000000000000000023690200E2
:1060300025690200000000002769020029690200AA
:106040006DA102002B69020069A90200F19802000B
:106050002B6902002B69020025A502002B690200B2
:106060002B6902002B6902002B6902002B690200D8
:106070002B6902002B6902002B6902002B690200C8
:106080002B690200058302002B6902002B690200C4
:106090002B6902002B69020055C202002B69020025
:1060A0002B6902002B6902002B6902002B69020098
:1060B0002B6902002B6902000000000000000000B4
:1060C0002B6902002B6902002B6902002B69020078
:1060D0002B6902002B6902002B69020000000000FE
:1060E00000000000000000000000000000000000B0
:1060F00000000000000000000000000000000000A0
:10610000000000000000000000000000000000008F
:10611000000000000000000000000000000000007F
:10612000000000000000000000000000000000006F
:10613000000000000000000000000000000000005F
:10614000000000000000000000000000000000004F
:10615000000000000000000000000000000000003F
:10616000000000000000000000000000000000002F
:10617000000000000000000000000000000000001F
:10618000000000000000000000000000000000000F
:1061900000000000000000000000000000000000FF
:1061A00000000000000000000000000000000000EF
:1061B00000000000000000000000000000000000DF
:1061C00000000000000000000000000000000000CF
:1061D00000000000000000000000000000000000BF
:1061E00000000000000000000000000000000000AF
:1061F000000000000000000000000000000000009F
:1062000010B5054C237833B9044B13B10448AFF3F0
:1062100000800123237010BD181A00200000000028
:106220004CD5020008B5034B1BB103490348AFF33B
:10623000008008BD000000001C1A00204CD50200A0
:10624000A3F5803A704700BF174B002B08BF134BD4
:106250009D46FFF7F5FF00218B460F461348144A71
:10626000121A06F0B9F90E4B002B00D098470D4BCF
:10627000002B00D098470020002104000D000D489D
:10628000002802D00C48AFF3008006F073F920001C
:10629000290005F0F3FB06F059F900BF00000800E3
:1062A000000000000000000000000120181A00207B
:1062B000B82200200000000000000000037833B97D
:1062C0000279022A04D0194B01221A7070477047D4
:1062D00070B5174C2278F72A82B0D1B21AD0FA29B9
:1062E00011D114498DF804300A784978124D1348B9
:1062F000134E130343EA011343EA12132968056896
:10630000336001A8A84700232370084B01221A70AC
:1063100002B070BD07498DF804300A784978064DFF
:106320000648084E130343EA0113E5E7841A0020E8
:10633000741A0020381A00204C1A00206C1A002011
:106340007C1A0020701A00202DE9F043DFF834C2D7
:106350007B4CDFF83492CCF8003089B00E46014611
:106360007848DFF8288202604FF0000C892384F817
:1063700000C0624689F800304FF0020C8DF80B30F7
:10638000714F96F800E0C8F800100123081D8DF841
:106390000CC004934FF0060C0DF10B036B4D8DF800
:1063A0000DE003A9CDE905C387F800E0079503F0E8
:1063B00013FC0DF10B03002840F0B38020BF2278BE
:1063C000002AFBD02878697895F802E0EA7895F8F9
:1063D00004C0069341EA00215D486B7901805D4964
:1063E000D8F80000079542EA0E220A805A4997F829
:1063F00000E08DF80DE043EA0C230B8000228F2390
:10640000022122708DF80B3089F800304FF0010C1A
:1064100012238DF80C10043003A9CDE904C303F056
:10642000DBFB002840F0888020BF2378002BFBD0C6
:10643000B37896F801E0287895F801C0AA78E97851
:1064400095F804909B0043EA4E138DF80D30434BB2
:1064500095F806E04CEA002CA3F800C041EA0221BE
:106460003F4B6A79E879198042EA09233D4A3E495F
:1064700095F80890138040EA0E206A7A08803B481D
:1064800095F80AC0EB7A697B95F80EE042EA09229A
:106490000280374A95F80C90364843EA0C23138063
:1064A000EA7B95F810C06B7C334D41EA09210180ED
:1064B00042EA0E2231482A8043EA0C230022F521C9
:1064C000038022708DF80C10D8F800000092397803
:1064D0000430022303AA03F013FD50BB20BF23782E
:1064E000002BFBD0D8F80000397800230093F22568
:1064F0002370043003AA0223ADF80C5003F000FD12
:10650000A0B920BF2378002BFBD03379F1781C4A47
:106510009B0043EA411343F00103137009B0BDE847
:10652000F08301F071FA0DF10B0347E701F06CFA0B
:10653000E7E701F069FAD1E701F066FA74E700BF16
:10654000841A00206C1A0020341A0020381A002007
:10655000641A0020661A0020681A0020521A0020CF
:10656000541A0020561A0020581A00205A1A0020E7
:106570005C1A00205E1A0020601A0020621A0020B7
:10658000501A00204C1A0020741A0020801A002093
:1065900030B50F4A0F4B10680F4A104C1B7811781A
:1065A00085B000228DF80D300092F4252270043061
:1065B000022303AA8DF80C5003F0A2FC28B920BFD7
:1065C0002378002BFBD005B030BD01F01DFAF6E7B3
:1065D000801A0020501A0020341A0020841A00204B
:1065E0002DE9F043DFF8A880DFF8A89098F8003094
:1065F000244C254DD9F80000244F87B000228DF897
:106600000530FA23012622708DF803302B70032306
:106610004FF0020C029604300DEB030601A9CDE900
:1066200003368DF804C0059703F0D6FA20BB20BFCF
:106630002378002BFBD098F80030D9F800008DF8B3
:1066400005300022F72304960597227002270126C1
:106650008DF803302B700430032301A9CDE90263C8
:106660008DF8047003F0B8FA48B920BF2378002BE6
:10667000FBD007B0BDE8F08301F0C6F9D7E701F021
:10668000C3F9F2E7841A0020741A0020381A002097
:10669000341A0020801A00202DE9F04F854A864BDD
:1066A000D2F800C01B888549854AB1F90010B2F9BB
:1066B0000070844D844C854AB4F90040DFF82CE228
:1066C000C3EB2C1606FB06F636135B00C3EBEC039C
:1066D00001FB06F107FB03F3891301EBE321B1F59D
:1066E000FA334FEAE17747F1FF3CA3FB038903FB51
:1066F0000CF609EB4609B5F90060CEF80010F71763
:1067000006FB09F585B008FB0755A6FB0867CDE930
:1067100002673E462E4404FB0CFAE51703FB05AA6C
:10672000A4FB0345CDE9004503962C465444DDE91E
:1067300002AB01945446260A009C2703019C2503C2
:10674000009C46EA0B66F61945EA14554FEA2B2BD6
:1067500014884BEB050B00364BF5004BA6FB04678A
:1067600001EB810204FB0B77803212127C10FD17C3
:10677000026054EA0502824600F095805449554A69
:10678000B1F90000B2F90020534EC11700FB0CFC18
:1067900003FB01CC3768A0FB030102FB09F6D3170A
:1067A00008FB03636144A2FB08894C4A99444E04E8
:1067B000430413EB080CC7F58017B2F9002046EA32
:1067C000D03646EB090600204FEAE77910EB0C00C3
:1067D0004FEAC7734FEAC9714FEAC20246EB0202A1
:1067E00041EA5701181A61EB0206031846EB06014D
:1067F0001B1846EB01018A019F0142EA9362DB19F3
:1068000042EB010189009A0041EA9371131846EBAB
:1068100001019A008900101841EA937122462B4623
:1068200046EB010105F0EAFE2D4C2E4FB4F9004075
:106830002D4A4B134FEA503C4CEAC14C04FB03F683
:10684000E5170CFB0566A4FB0C453544B7F9006061
:1068500004FB03F30CFB0533F717A4FB0C4506FB05
:1068600001FC1D4400FB07CC630EA6FB0078E0444E
:1068700043EAC513FE0C1B184FEA656446EA483626
:1068800044EB0101B2F900009B194FEAE84441EBE7
:1068900004041B0A43EA046300010344CAF80430F9
:1068A00005B0BDE8F08F0023CAF8043005B0BDE89C
:1068B000F08F00BF7C1A0020641A0020681A0020A4
:1068C000661A0020561A0020541A0020521A00207E
:1068D0005A1A00205C1A0020701A0020581A002052
:1068E000621A0020601A00205E1A0020781A002028
:1068F0000649074A074B9B1A03DD043BC858D05092
:10690000FBDC02F08FFBFFF79FFC000014D60200B7
:10691000C8180020181A0020FEE7FEE7FEE7FEE791
:10692000FEE7FEE7FEE7FEE7FEE7FEE7F0B595B01F
:1069300000241D460E460846174602F021FA30464E
:1069400023460822099505A91A9D08970D950A94D2
:106950008DF82C400C9402F077FA9DF814308DF8E5
:106960001140DDE9061003F00302012ACDE902011E
:1069700028D0022A04D0304602F006FA15B0F0BD45
:10698000BDF81650C3F3C2038DF81030C5F3891556
:106990000827082D2C4628BF08243B4622460EA96E
:1069A000304602F051FA2D1B214608AB02AA0EA870
:1069B000274400F0C9FD002DEBD1304602F0E4F988
:1069C00015B0F0BDBDF81470059DC7F38312C3F375
:1069D000C2040EA93046920008238DF81040C7F378
:1069E000831702F031FAC5F3952508AB3A462846DD
:1069F0000EA9009302AB00F02FFD304602F0C4F95F
:106A000015B0F0BD014B01221A707047C81A002062
:106A1000704700BF00B583B0044B0093044A402385
:106A2000FFF784FF03B05DF804FB00BF356A020086
:106A3000881A002038B50E480E4D03780E4CEB5CDA
:106A400000252570D2B253B1043004F093FC58B93C
:106A50000A4B1B7813B12378002BFCD038BD0C30C7
:106A600004F0DEF90028F3D000F0CEFFF0E700BF1D
:106A7000C8180020B4220020C81A0020851A00205F
:106A80002DE9704319481A4A0378D35C88B02BB3B8
:106A9000043004F0CFFB174D0FCD6C460FC495E8C2
:106AA0000F004FF0EB7684E80F004FF006084FF030
:106AB000FF394FF0FF344FF0FF350C4806960022A7
:106AC0006946CDE90089CDE9024502F0F7FD48B9F4
:106AD000094B00221A7008B0BDE870830C3004F036
:106AE00031F9D8E700F090FFF2E700BFC8180020A6
:106AF000B4220020ACC90200851A0020F0B5154D63
:106B00000FCD89B06C460FC495E80F004FF0EB7CB9
:106B100084E80F0006264FF0FF374FF0FF344FF0A8
:106B2000FF350D4A0D48CDF818C06946CDE900671C
:106B3000CDE9024502F0C2FD20B9094B01221A70CD
:106B400009B0F0BD00F060FF054B01221A7009B0DA
:106B5000F0BD00BFACC90200056A0200C8180020E1
:106B6000851A002008B5FFF7C9FF0448042100F08A
:106B7000F1FB034B01225A7108BD00BFFCD5020096
:106B8000DC180020064B074810B500221A7002F0EE
:106B9000ABF8044610B9044802F0CCF9204610BD09
:106BA0009C1B002070D5020004CA020099B10E4B54
:106BB0000E495B1ADB0815D030B400220C4D02E000
:106BC000013293420BD035F822408442F8D151F87B
:106BD000320030BC7047054951F830007047002042
:106BE00030BC704718467047FCD5020084D50200BF
:106BF000181A0020094B013903EBC00003290BD8F8
:106C0000DFE801F004020806042070470220704704
:106C100040797047007970470020704784D50200A2
:106C2000704700BF2DE9F0438C4CD4E901239A4210
:106C300085B060D00023C4F81834BFF34F8FA56827
:106C4000EAB2D31C04EB830114F82330580718D59B
:106C500066680B7803F00303012B42D0022B03D1AB
:106C60004B88023505EB9315EAB2D4F81804D31C0F
:106C700004EB830128B9AE4239D914F823305B07FD
:106C8000E7D404EB82026B1CD2680192DBB204EB06
:106C9000830302F00302DB680293022A05F1020675
:106CA0002DD0012A00F08D80D4F810543DB12B680E
:106CB00028469B689847EB681D68002DF7D1684807
:106CC000684B6949C01AC008000440F0020000F097
:106CD000D1F8D4E90130C01A18BF012005B0BDE8D1
:106CE000F0830B880235C3F383131D44BCE7A66011
:106CF00005B0BDE8F083002005B0BDE8F083BDF825
:106D000006305A48C3F389184546502D28BF5025F0
:106D100065F38F1305F10801ADF8063001F0E6FFC9
:106D200007460028C0D002F02BF8002301A9082252
:106D3000384602F055F8F343DBB20133B5EB830F6D
:106D40004FEA8309F1B277D9A5EB0905033104EBCA
:106D5000810108234A463846EDB202F041F8444921
:106D60002A4609F10803384602F03AF808F1030808
:106D700006EB9806D4F81834002B6AD1D4F81054D6
:106D800065B1EB685A7928463946002A5DD02B68F0
:106D90001B689847EB681D68002DF2D1384601F05A
:106DA000F3FF00230DF103008DF8033001F016F915
:106DB000D4F8183403B9A6609DF8030001F034F943
:106DC00087E7BDF804302948C3F38312062A28BF99
:106DD0000622911C62F389138900ADF8043001F09A
:106DE00085FF074600283FF45FAF01F0C9FF00238D
:106DF000082201A9384601F0F3FFBDF8043013F46E
:106E0000707FB7D06FF00108A8EB05080825F1B234
:106E100003312B46042204EB8101384601F0E0FFE8
:106E2000BDF80420013608EB0603C2F383129A4230
:106E300005F10405EBD89DE703312A4604EB8101F7
:106E40000823384601F0CCFF90E71D68002D98D14B
:106E5000A4E7384601F098FF3BE700BF9C1B0020E9
:106E6000B4D5020084D50200ECC9020070D502003E
:106E7000A81B00202DE9F04F5F4C87B00023064689
:106E80000DF10B008DF80B300F4601F0A7F8D4E997
:106E9000015303F580735B1B012B7DD804F21C4862
:106EA00004F5836A04F214491AE0BDF80E30C3F306
:106EB00089130333090C0BEB930B4846019101F046
:106EC000FBFA0199002839D04046C4F808B001F017
:106ED000C7FAD4E9013202F58072D21A012A5CD8CD
:106EE0000121404601F0BCFA504601F0D5FA48466F
:106EF00001F0D2FAA368DAB2D11C04EB810014F8D5
:106F0000211001F0040C490728D404EB8202591C1B
:106F1000D2680392C9B204EB810102F00302012A94
:106F2000C96803F1020B30D0022ABED000214846C6
:106F3000019101F0C1FA01990028C5D14046C6E788
:106F400043880EEB9313DAB2D11C04EB810014F8E2
:106F5000211001F0040CBCF1000FD6D0017801F033
:106F6000030101290BD0022903F1020E02F10301F2
:106F7000E6D004EB8100BCF1000FEFD1C5E7028839
:106F80000233C2F383121344DDE7BDF80C30C3F3C0
:106F90008313090C9B4490E72B46DAB20332023389
:106FA00005219DF80B0044F82210636001F03CF8C5
:106FB0000021124801F046FA80F31000F1006B1C2A
:106FC00001F03801DBB2EDB204EB830341F00101C3
:106FD0000004033540EA164641EA8727DE6044F89C
:106FE000257023781BB1FFF71DFE0028FBD1FFF7AA
:106FF00017FE07B0BDE8F08F9C1B0020B81F0020D3
:107000002DE9F04F644C87B0002306460DF10B00CC
:107010008DF80B300F46904600F0E0FFD4E90153A5
:1070200003F580735B1B022B7FD804F21C4904F527
:10703000836B04F2144A1BE0BDF80E20C2F38912E0
:107040000332090C03EB92035046CDE9003101F005
:1070500033FA019900283AD0009BA360484601F01A
:10706000FFF9D4E9013202F58072D21A022A5DD802
:107070000121484601F0F4F9584601F00DFA504656
:1070800001F00AFAA368DAB2D11C04EB810014F80B
:10709000211001F0040C490729D404EB8202591C89
:1070A000D2680392C9B204EB810102F00302012A03
:1070B000C96803F1020331D0022ABDD00021504635
:1070C000CDE9003101F0F8F901990028C4D1484612
:1070D000C5E743880EEB9313DAB2D11C04EB8100B1
:1070E00014F8211001F0040CBCF1000FD5D0017888
:1070F00001F0030101290BD0022903F1020E02F174
:107100000301E6D004EB8100BCF1000FEFD1C4E72E
:1071100002880233C2F383121344DDE7BDF80C206A
:10712000C2F38312090C13448EE72B46DAB2033202
:10713000033345219DF80B0044F82210636000F0F2
:1071400073FFAB1CDBB204EB830300211348C3F8CD
:107150000C8001F077F980F31000F1006B1C01F056
:107160003801DBB2EDB204EB830341F041010004CE
:10717000033540EA164641EA8727DE6044F8257069
:1071800023781BB1FFF74EFD0028FBD1FFF748FD28
:1071900007B0BDE8F08F00BF9C1B0020B81F002087
:1071A0002DE9F04F694C89B0002506460DF113001A
:1071B0001F468DF813508846039200F00FFFD4E964
:1071C000015303F580735B1B032B00F2828004F2F2
:1071D0001C4904F5836B04F2144A1BE0BDF8162029
:1071E000C2F389120332090C03EB92035046CDE936
:1071F000013101F061F9029900283BD0019BA360A5
:10720000484601F02DF9D4E9013202F58072D21A14
:10721000032A5FD80121484601F022F9584601F0BF
:107220003BF9504601F038F9A368DAB2D11C04EBFF
:10723000810014F821C01CF0040F0CF0040128D1C7
:1072400004EB8202591CD2680592C9B204EB810199
:1072500002F00302012AC96803F1020332D0022AB4
:10726000BCD000215046CDE9013101F025F9029949
:107270000028C3D14846C4E743880EEB9313DAB223
:10728000D11C04EB810014F8211001F00401002945
:10729000D6D090F800C00CF0030CBCF1010F0BD05D
:1072A000BCF1020F03F1020E02F1030CE4D004EB77
:1072B0008C000029EDD1C3E702880233C2F38312A8
:1072C0001344DCE7BDF81420C2F38312090C134405
:1072D0008CE72B46DAB20332043385219DF8130084
:1072E00044F82210636000F09FFEAA1CEB1CDBB286
:1072F000D2B204EB830C04EB8202039B1448D360EC
:107300000021CCF80C7001F09DF880F31000F10022
:107310006B1C01F03801DBB2EDB204EB830341F0EA
:1073200081010004033540EA164641EA8821DE6007
:1073300044F8251023781BB1FFF774FC0028FBD11B
:10734000FFF76EFC09B0BDE8F08F00BF9C1B00206A
:10735000B81F002030B4154DD5F810140446002095
:1073600071B10B4601E01B6853B1DB681A798242A8
:10737000F9D101300A28F3D14FF0FF3030BC70470B
:10738000E3681871D5F810344BB1DA68E368126815
:107390001A60D5F81034DB681C6030BC7047C5F843
:1073A0001044E268136030BC704700BF9C1B002093
:1073B00038B5084BD3F8104401251D704CB1E36873
:1073C0005D71236820465B689847E3681C68002C61
:1073D000F5D138BD9C1B002030B5C38885B004466C
:1073E0000D461BBB217A05291ED0627A82B9134A49
:1073F000A08852F8212003920021FFF7D7FB039ABF
:107400000F490346284605B0BDE8304001F0D0B82A
:10741000A088FFF7EFFB0B4B0B4953F820202846C1
:1074200001F0C6F8217AE2E705B030BD074A0092C4
:107430000749084A284601F0BBF8D3E7DCCA020036
:107440003CCA0200B8CA020038CA020030CA0200B0
:1074500018CA020010CA02002DE9F04385B04FF0AF
:10746000000C0C9C814694F80C8084F80CC00E46ED
:107470001746184621461D46FFF7AEFF062F09D8CE
:10748000DFE807F0042E343B444F1F0049462046F6
:1074900001F08EF82B7A052B05D06B7A5BB9274962
:1074A000204601F085F8204601F076F884F80C803B
:1074B00005B0BDE8F083224A2249204601F078F861
:1074C000EDE7D6E90413F2680393B3680291CDE9BE
:1074D00000324946D6E90023204601F069F8D9E791
:1074E00032684946204601F063F8D3E7D6E9002325
:1074F0004946204601F05CF8CCE7B3680093D6E932
:1075000000234946204601F053F8C3E7D6E902328A
:1075100001920093D6E900234946204601F048F83D
:10752000B8E7D6E90321B3680291CDE900324946B4
:10753000D6E90023204601F03BF8ABE748CA020039
:1075400030CA020038CA0200082900D970472DE964
:10755000F04F9B4683B000241B7B8BF80C400D46FC
:1075600006465946104690460193DFF8D0902C4FBE
:10757000FFF732FF05E0325D013401F019F8082C05
:1075800009D0A54239465846F5D84946013401F09C
:107590000FF8082CF5D12349DFF8A490224C234F93
:1075A000584601F005F84FF0000A0DE0D15D11F0EA
:1075B000970F08BF2E22214658460AF1010A00F013
:1075C000F7FFBAF1080F10D0554505D916F80A2073
:1075D0007E2AEBD92E22EEE7494658460AF1010AE7
:1075E00000F0E6FFBAF1080FEED198F80830052B4D
:1075F00002D098F8093063B90D49584600F0D8FF19
:10760000584600F0C9FF019B8BF80C3003B0BDE871
:10761000F08F084A0849584600F0CAFFECE700BF5F
:107620004CCA020058CA02005CCA020045D40200DB
:1076300048CA020030CA020038CA020054CA020016
:1076400044CA020038B5174B1D783DB3164B196874
:10765000C0B200230C4604E00133AB4204F108043D
:107660001CD011F833209042F6D102F051FF63781C
:10767000A3F10103B3FA83F35B09834200D038BD61
:107680000A4BD3E900231343F9D1094B0948196880
:107690000022BDE83840490800F004BC00231B78F4
:1076A000FFDE00BF54200020782000206020002052
:1076B00058200020E81800202DE9F04FDFF8548210
:1076C00098F8003083B0002B00F01981DFF8489261
:1076D0008C4F8D4E00254FF0010A3C6814F83500A0
:1076E00002F016FF04EBC50314F835405B784FEA4F
:1076F000540C14F0010E16F80C10A3F10103B3FAA8
:1077000083F314BF0A0901F00F025B09042A00F297
:10771000A080DFE802F0725D32200300834240F077
:10772000AB80BEF1000F0CBFF0230F2303EA01036F
:107730000CBF03213021194306F80C1098F80020E3
:1077400001359542C9DBD9E90023134340F0CD80D0
:1077500003B0BDE8F08F83427BD0BEF1000F0CBFB9
:10776000F0230F2303EA01030CBF04214021194336
:1077700006F80C1098F80020E2E783426CD1BEF1C5
:10778000000F0CBFF0230F2303EA010398F8002039
:107790000CBF03213021194306F80C10002AD2D067
:1077A000D7F800C00023614603E0934201F10801CD
:1077B000C6D01CF83300A04203F10103F5D14B6899
:1077C000002BBDD020460121984798F80020B7E74C
:1077D000834219BF0020034602232020BEF1000F80
:1077E0000CBFF0220F2201EA020118BF03460B432F
:1077F00006F80C3098F80020A2E7834229D1BEF1A8
:10780000000F14BF0F23F02303EA010314BF10215C
:10781000012119430DF107004FF0000306F80C1089
:107820008DF8073000F0DAFBD9E90032A4F120012D
:10783000C4F120000AFA01F12AFA00F001430AFA21
:1078400004F4114323439DF80700C9E9003100F017
:10785000EBFB98F8002073E7BEF1000F0CBFF0239C
:107860000F2303EA01030CBF01211021194306F87D
:107870000C1098F8002063E7BEF1000F14BF0F232F
:10788000F02398F80000194006F80C1098B1D7F8CA
:1078900000C00023624603E0834202F108020AD0DE
:1078A0001CF83310A14203F10103F5D1536813B161
:1078B0000021204698474FF000030DF107008DF896
:1078C000073000F08BFBD9E90032A4F12001C4F1AC
:1078D00020000AFA01F12AFA00F001430AFA04F43E
:1078E00022EA010123EA0403ADE7084B08481968BE
:1078F0000022490800F0D6FA03B0BDE8F08FDFF8A7
:10790000189020E7782000206820002058200020D0
:10791000E81800205420002060200020092A43D9C4
:107920002DE9F04182B0144606460D4602F0A4FC53
:10793000002832D0214A2249224B16600D7022487D
:107940001C600021102204F047FE204B0020002183
:107950006C1EC3E90001E4B245B3DFF87C8006EB9E
:10796000C404032702E0A64220D01C469DF806303E
:10797000A57820788DF8047023F00703424601A90A
:107980008DF806308DF8055002F080FCA4F1080354
:107990000028E8D002B0BDE8F08102F01DFC00280C
:1079A000C8D002B0BDE8F08107207047084A0948F6
:1079B000002100F061FA02B0BDE8F08178200020DB
:1079C0005420002058200020682000206020002043
:1079D000B9760200FCCA02004576020070B5084D77
:1079E0002B785BB1074E00243368012113F8340073
:1079F00002F030FD2B780134A342F5D8002070BD91
:107A0000542000207820002000B585B003460021D6
:107A100001AA44F20100CDE90111039300F004F83A
:107A200005B05DF804FB00BF10B572B6FFF7C0FCEF
:107A3000FFF7F8F80028FBD1104B114C1149E41A5C
:107A4000E408240444F00100FFF714FA0E4B1B680D
:107A5000DB0700D500BE0D4944F00200FFF70AFA2B
:107A6000BFF34F8F0A490B4BCA6802F4E06213431D
:107A7000CB60BFF34F8F00BFFDE700BF84D502008E
:107A8000B4D5020000CB0200F0ED00E00CCB020008
:107A900000ED00E00400FA05D0E90223D1E902017B
:107AA000994208BF90422CBF01200020704700BFC0
:107AB00010B5044682B000230DF107008DF80730A1
:107AC00000F08CFA23692BB94FF0FF324FF0FF33EF
:107AD000C4E902239DF8070000F0A6FAD4E90530B6
:107AE000984700230DF107008DF8073000F076FA73
:107AF0002369B3B1D4E902014A1C08BFB0F1FF3FCA
:107B00000FD0C01841F10001C4E902019DF807003F
:107B100000F08AFA0648214601F030FA012002B04E
:107B200010BD9DF8070000F07FFA002002B010BDE4
:107B30002CCB02002DE9F04F87B0064600F0A0FBE9
:107B400040B1AA4AD2E9003113F1807341F100013A
:107B5000C2E900310021304600F0AEFBA44C60B316
:107B6000236853B3A34B25681B7823B31DB3A248E6
:107B700000F0B2FB9D4BA149D3E90023D1E9008974
:107B8000121843F100034B4508BF424503D212F1DE
:107B9000807243F10003D5E902018B4208BF8242A3
:107BA00080F02081013108BFB0F1FF3F03D094483D
:107BB000294601F0E3F9002323600121304600F05B
:107BC0007BFB002840F0F2808E4805A900F0FAFB0C
:107BD00078B38C4D4FF0FF384FF0FF390BE0002B9E
:107BE00000F0958005A9284600F01CFC05A9284650
:107BF00000F0E8FBE8B10378012B11D0022BEED1A5
:107C00007F4F384601F0CEF930B1C0E902893846DD
:107C100001F0C8F90028F8D1764B01221A70E1E78B
:107C200041682368994200F0B680754801F0C4F9B4
:107C3000D8E7DFF8CC81704FDFF8B091404601F013
:107C4000B7F9002859D0D0E90223591C08BFB2F176
:107C5000FF3F58D0216891B12168D1E902018B42E0
:107C600008BF82424CD22368D3E90223013308BF04
:107C7000B2F1FF3F03D02168404601F07FF9404652
:107C800001F090F905463846AA68EB680392029322
:107C900000F022FBD9E900AB584BD3E900231AEBE3
:107CA000000A4BF1000B9B4508BF9245DDE902320B
:107CB00003D21AF1807A4BF1000BB2EB0A0163EBAD
:107CC0000B0301930091DDE90001012871F100032C
:107CD0002ADBB0F5350F58D24FF496030021384611
:107CE00000F048FA00284AD00D2821D00023404651
:107CF000236001F05DF90028A5D12368002B6DD029
:107D000007B0BDE8F08F404601F04CF996E74168B6
:107D1000D1E90223013308BFB2F1FF3F3FF462AF64
:107D2000374801F02BF95DE70021384600F0B8FA3A
:107D3000304B1B78002BD9D0384600F0CDFAD9E96A
:107D400000232E49D1E900AB121843F100035B4533
:107D500008BF524503D212F1807243F10003D5E906
:107D600002018B4208BF82421CD2013108BFB0F130
:107D7000FF3FBBD02946404601F000F9B6E7236833
:107D800063B1256007B0BDE8F08F384600F0A4FA73
:107D90001D4A0244A0E70023236023E7304600F099
:107DA000BBF9EEE72846FFF783FE9FE71248134D25
:107DB00000F092FA0D4BD3E90089D5E9002318EBC6
:107DC000000849F10009994508BF904503D218F110
:107DD000807849F10009C5E90089F5E6304600F0F0
:107DE0009FF98DE72846FFF763FEE4E68020002038
:107DF000002100208820002008190020F820002001
:107E00002CCB0200E4200020FFFFB40010B5134B80
:107E100013491B68134882B058220193082300F0CD
:107E20007BFA044610B1204602B010BD0E4A0F483E
:107E300001A900F011F904460028F4D10B480121F2
:107E400000F014FA01231946094A084800F06CF9B9
:107E5000084B012220461A7002B010BD28CB020048
:107E60008C200020E4200020357B0200081900202F
:107E7000FFFF7F00882000208AB130B4A1F101010A
:107E80000368B1FA81F14FF0FF344FF0FF35490933
:107E9000C3E90412C3E90245002030BC7047072043
:107EA000704700BF2DE9F04383B00546002401A8C8
:107EB00017460E468DF8044000F090F8D5E90223ED
:107EC000013308BFB2F1FF3F07D09DF8040000F076
:107ED000ABF8204603B0BDE8F0831D4800F0FCF984
:107EE0001C4B1D49D3E90023D1E90089121843F145
:107EF00000034B4508BF424525D3921943F10003C7
:107F0000C5E902239DF8040000F08EF82B69AF61EB
:107F100003B12E61114801A900F016FA78B10024CE
:107F20004560047001A90D4800F03CFA0028D1D04A
:107F3000074800F0D5F9204603B0BDE8F0830420DF
:107F400003B0BDE8F08312F180726341D5E700BF52
:107F50000819002080200020F8200020E4200020C4
:107F600030B583B00446002501A88DF8045000F018
:107F700035F8D4E90223013308BFB2F1FF3F1BD02B
:107F80004FF0FF324FF0FF339DF80400C4E90223A5
:107F900000F04AF80F4801A900F0D6F948B10123D2
:107FA0004460037001A90B4800F0FCF958B903B014
:107FB00030BD042003B030BD9DF8040000F034F85B
:107FC000284603B030BD044800F08AF9284603B0C3
:107FD00030BD00BFE42000200819002070B4EFF38A
:107FE000108472B60D4B9A68AAB90D490D4E012541
:107FF0009D60D1F8805035401D60C1F88060D1F897
:1080000084505D604FF0FF33C1F88430027004B9D2
:1080100062B670BC704701230370F8E7A822002005
:1080200000E100E0FC06FFBD094B9A687AB170B927
:1080300010B4EFF3108172B6064A1C6814605C68D5
:108040005460986001B962B65DF8044B70477047A0
:10805000A822002000E100E070B5274C4379274EAC
:1080600004EBC30546F823202D79002D37D1036892
:108070000A88C3F8082590F904308A78002B26DB9B
:1080800003F1604303F561435201D2B283F8002348
:1080900090F90430002B07DB194903F01F0501227A
:1080A0005B09AA4041F823204279164B164D44F84B
:1080B0003200581B04EBC204C0080123000413491A
:1080C000237140F00300FEF7D5FE002070BD10497B
:1080D00003F00F0352011944D2B20A76D8E70A4BD3
:1080E00008480C49C01AC008000440F00200FEF71E
:1080F000C1FE082070BD00BF042100200C2100201B
:1081000000E100E0C4D5020084D502005CCB02008F
:10811000FCEC00E038CB0200036801221A607047D3
:10812000036801225A607047F0B404684FF4803548
:108130008D40C4F80853066801F15004C6F848534E
:10814000A4000668A4B20027375182B036590468EB
:10815000019601F5A87122F07F42019E44F821208A
:108160000268C2F8445313B10368C3F8045302B061
:10817000F0BC70472DE9F04704464FF480360068A4
:108180008E40C0F848632068C0F80863206800EBA0
:1081900081058A46D0F80415D5F84005C5F8401584
:1081A0000AF15005AD002768ADB24FF0000847F85E
:1081B000058082B0401A7F59009720F07F40012847
:1081C00022F07F479946009A41D02268D2F80455A0
:1081D000C2F844637A1B22F07F42012A0AF5A87193
:1081E00025D0226842F821702068D0F804557A1B07
:1081F000C9F1FF13013A03F57F4322F07F42934216
:1082000011D342B1C0F8446323680020C3F804636B
:1082100002B0BDE8F087013740F821702068D0F83F
:1082200004359D42EED00D2002B0BDE8F0872068F5
:108230000D4B013740F8217043F001034FF480608B
:1082400098472068D0F804359D42DBD0EBE7064A1A
:108250004FF4806042F001029047226842F80580A6
:1082600052590192019AB0E770CB020002680223D2
:10827000C2F8443311B10268C2F80433704700BF3A
:108280000368D3F8040100B97047002282B0C3F834
:108290000421D3F804310193019B012002B07047FF
:1082A00002684FF4803303FA01F1C2F848130368FF
:1082B000C3F80813704700BF50318900036889B2C2
:1082C000585800B9704700225A5082B05B58019349
:1082D000019B012002B070470368D3F80405704782
:1082E00090F90430002B09DB5A090548403203F0AD
:1082F0001F03012101FA03F340F82230704700BF49
:1083000000E100E0024A034B10681B68184700BFF9
:10831000042100200C21002099B110B4B2FBF3F429
:1083200003FB1424A4B244B9C0E900148460828120
:10833000C38120465DF8044B704709205DF8044B6B
:1083400070470E20704700BF30B482B050E8013F44
:108350009DB2C48925448489A54228BF2D1B048968
:10836000A54202BFBFF32F8F002207E0C5EA030535
:1083700040E80154002CE9D14FF001028DF80320B0
:108380000193019B9DF803200B602AB10B880068C4
:10839000184402B030BC704702F0FF03184602B028
:1083A00030BC70470A884B889A4201D00020704741
:1083B00050E8012FC2EA024240E80123002BF7D126
:1083C0000120704730B482B050E8023F1FFAA3F595
:1083D000C488A54202BFBFF32F8F00220DE0C489DD
:1083E00025448489A54228BF2D1BC3EA054540E8E2
:1083F0000254002CE8D14FF001028DF803200193C4
:10840000019B9DF803200B602AB14B88006818443B
:1084100002B030BC704702F0FF03184602B030BC17
:10842000704700BF0A884B889A4201D000207047ED
:1084300050E8022FC2EA224240E80223002BF7D183
:108440000120704710B4034653E8000F0A4643E882
:10845000002494F0000FF7D15DF8044B704700BF83
:1084600010B4034653E8002F02EB010043E8000478
:1084700094F0000FF6D15DF8044B704710B403463A
:1084800053E8002FA2EB010043E8000494F0000F32
:10849000F6D15DF8044B704710B40346012253E84F
:1084A000001F41EA020043E8000494F0000FF6D1F7
:1084B0005DF8044B704700BF10B40346002253E838
:1084C000000F00EA020143E8001494F0000FF6D117
:1084D0005DF8044B704700BFB8B130B4D0E9011269
:1084E000521A0468D2B2531E2160DBB242B1016855
:1084F0000A685C1E551C0D601370E3B2FF2BF6D1A9
:1085000003680020187130BC70470E20704700BF10
:10851000F0B583B0044600250DF107008DF8075033
:10852000FFF75CFDD4E900311A688A4210D9511E68
:1085300019602168A3680F6812F8015C0A79268A1D
:10854000E068DB1BDBB29A4206FB050538BF0B7106
:108550009DF80700FFF768FD284603B0F0BD00BF97
:1085600030B5054683B000230DF107000C468DF8A9
:108570000730FFF733FD2A681368591C1160E9685A
:108580002A8A641AB4FBF2F41C709DF80700FFF706
:108590004BFD03B030BD00BF826842B110B5044648
:1085A00043690168006998470023A36010BD7047C4
:1085B0000EB400B582B0039921B104AB01AA0193B6
:1085C00000F0ACF802B05DF804EB03B0704700BFF8
:1085D0002DE9F04F164683B0B142DDE90C920F460B
:1085E00005469A46C0F095800B464FF00108B3FB54
:1085F000F6F39E4208F10108F9D9D04538BFD046BC
:1086000012F00103019302D1B9F1000F5ED1AA6803
:10861000012403E00AF1FF3A06FB04F4BAF1010F6A
:10862000F8D8B7FBF4F39E42F6D9DFF8ECA007E0E8
:10863000B442B4FBF6F31AD3AA681C46B7FBF3F3B3
:108640001AF803B0BBF10A0F04FB137728D02B688C
:10865000511CA96003F802B0D5E901329A42E7D370
:108660002846FFF799FFB4FBF6F3B442E4D2019B2E
:108670009BB1B9F1000F10D02024C84509F1FF3992
:108680000BD2AB682A68591CA960D454D5E90132D1
:108690009A4214D2B9F1000FEFD103B0BDE8F08FC8
:1086A000511C2B68A9604FF00D019954D5E9013296
:1086B0009A42CCD32846FFF76FFFAA68C7E728463F
:1086C000FFF76AFFB9F1000FD7D1E6E793071AD495
:1086D0002024AA68C84502F1010199D22B68A9603B
:1086E0009C54D5E901329A4209F1FF3903D2B9F11C
:1086F000000FEFD18CE72846FFF74EFFAA68B9F1CB
:10870000000FE7D184E7BAF1000F0CBF302420241A
:10871000DFE74FF0010870E778CB0200002900F096
:1087200054822DE9F04FDFF8B8950C7885B00646F5
:1087300090460D464FF00D0A10E00A2CB36800F089
:10874000AD803268591CB160D454D6E901329A42E6
:1087500080F0A0802C78002C00F087800135002C60
:1087600000F08380252CE8D1294600270D4611F81A
:10877000012B2D2A00F08880302A00F088802B2AD7
:108780007AD02A2A00F09980A2F13003092B4FF009
:1087900000040BD804EB840402EB440415F8012F09
:1087A000A2F13003092BA4F13004F3D92E2A00F0F2
:1087B0009080002301E015F8012F02F0FB016829E9
:1087C000F9D0252A00F07781583AD1B2202947D82C
:1087D000202A45D8DFE812F0350144004400440067
:1087E0004400440044004400440044004400430169
:1087F00013014400440044004400130144004400B9
:108800004400440044004400D20044004400A2005C
:10881000440094004400440035010120984202467F
:1088200038BF1A460292002C40F05081B80740F140
:108830006E81002B40F04E821C46BBF1000FC0F24F
:108840000A827A0700F11A8207F00302022A00F076
:10885000EA81CDE9004759460A223046FFF7B8FEC3
:1088600001352C78002C7FF479AF337B002B40F05E
:108870001C8105B0BDE8F08F0D4611F8012B2D2AA3
:1088800047F004077FF478AF47F001076EE747F041
:1088900002076BE73046FFF77FFE5BE73268591C43
:1088A000B16002F803A0D6E901239342FFF449AF77
:1088B0003046FFF771FEB36843E7D8F800301A1D61
:1088C000C8F800206A781C682E2A05F101057FF49B
:1088D00070AF6A78A2F13003092B05F101054FF062
:1088E00000033FF66AAF03EB830302EB430315F883
:1088F000012FA2F130010929A3F13003F3D95CE77C
:10890000D8F80020111DC8F8001011683046CDE9D4
:1089100000470A22FFF75CFE0135A2E7D8F80030D5
:108920001A1DC8F8002017F00107D3F800B040F076
:10893000F080BBF1000F03D0584603F055FE074608
:10894000BC4240F24381002C00F04081202205E02F
:10895000BC4200F03B81002C00F03881B1683368E4
:10896000481CB0605A54D6E90130984204F1FF34F3
:10897000EED33046FFF710FE2022E9E7D8F80020BA
:10898000131DC8F80030B36831681768581C3022CE
:10899000B060CA54D6E90123934280F0EF80326878
:1089A000581C7821B060D154D6E901329A4280F047
:1089B000E0800F2F03D93B461B090F2BFCD84FF04B
:1089C000805406E00F2C4FEA14137FF649AFB268CB
:1089D0001C46B7FBF4F319F803B0BBF10A0F04FB14
:1089E000137754D03368511CB16003F802B0D6E954
:1089F00001329A42E6D33046FFF7CEFDE2E7D8F8DF
:108A00000020111DC8F80010D2F800B08BEAEB72FC
:108A1000A2EBEB72092A7FF700AFDFF8C8C2012092
:108A200011466329ACFB02E200F101004FEAD202D9
:108A3000F6DC9842024638BF1A460292002C45D115
:108A4000F4E6D8F80020111DC8F80010116830466F
:108A5000CDE900471022FFF7BBFD013501E7D8F84B
:108A600000301A1DC8F800201C78B3680A2C00F0EA
:108A700011813268591CB160D454D6E901329A424E
:108A8000FFF4EEAE3046FFF787FD0135E9E63368C7
:108A9000511CB16003F802A0D6E901329A42A1D379
:108AA0003046FFF779FDB2689CE7304605B0BDE877
:108AB000F04FFFF771BDB3683168581CB060CA54FD
:108AC000D6E901329A42DDD20135CAE6BBF1000F88
:108AD00059DB7A0757D4B80702D5002B3FF4ADAE67
:108AE000F9073FF5AAAE94B120220299A142BFF442
:108AF000A4AEB168481CB06030684254D6E90101A8
:108B0000814204F1FF3480F0D480002CEDD10024A8
:108B100093E69BF80030002B00F0E080B0685F46E1
:108B2000CBF101020A2B02EB070B3CD0411CB160D8
:108B300031680B54D6E90130984226D217F8013F2C
:108B4000002BEFD15C457FF68BAE202702E05C4521
:108B50003FF486AEB2683368511CB1609F54D6E9C9
:108B600001329A4204F1FF34F1D33046FFF714FD8D
:108B7000EDE73046FFF710FDB2681AE73046FFF721
:108B80000BFDB3680BE7013CA5E730460292FFF707
:108B900003FD17F8013F002BD4D0029AB0680A2BCE
:108BA00002EB070BC2D1411CB160316801F800A093
:108BB000D6E901108842B9D33046CDE90232FFF739
:108BC000EBFCDDE90232B068B0E770479BF800408B
:108BD000002C3FF445AE0A2CB0680ED03368421C1E
:108BE000B2601C54D6E90130984214D21BF8014FF0
:108BF000002C3FF435AE0A2CF0D13368421CB26031
:108C000003F800A0D6E901309842E7D33046FFF7D9
:108C1000C3FCB068E2E73046FFF7BEFC1BF8014F2B
:108C2000002CD8D11CE6002B7FF413AE8CB130227F
:108C30000299A142BFF40DAEB168481CB060306823
:108C40004254D6E90101814204F1FF343BD2002CA9
:108C5000EED10024FDE5B1684A1CB26032682D20D7
:108C60005054D6E901219142CBF1000BFFF4ECAD59
:108C700030460393FFF790FC039BE5E5B1684A1C7F
:108C8000B26032682B205054D6E901219142FFF4A2
:108C9000DBADEDE73268591CB16002F803A0D6E9FC
:108CA00001239342FFF4E5AE3046FFF775FCB3684D
:108CB000DFE630460393FFF76FFC039B2022002C76
:108CC0007FF413AF23E730460393FFF765FC039B64
:108CD0003022BCE7F9073FF5B0AD18E79B4631E716
:108CE00078CB0200CDCCCCCCFFF7F6BB2DE9F04120
:108CF000058A0331043D4E198046B6FBF5F6FFF7B1
:108D000007FCA0B3F6B24FF48073013E0446C58061
:108D1000C0F8008083802BD00346002508E06279EC
:108D2000AE4202F1010262713860C0F800801FD0CB
:108D300040461F46FFF7ECFB013503460028EED105
:108D40006779791E17D02246013399421268FBD108
:108D5000D2F800805FB12668002501E0344636680D
:108D6000214601354046FFF7FBFBAF42F6D8002411
:108D70002046BDE8F08120682146FFF7F1FBF6E7C9
:108D800004300121FFF76CBB2DE9F04101210446BD
:108D90000430FFF773FB10F0FF0301D0BDE8F08152
:108DA0006779791E16D02246013399421268FBD1A9
:108DB000D2F80080002FF1D02668002501E034466B
:108DC0003668214601354046FFF7CAFBAF42F6D868
:108DD000BDE8F08120682146BDE8F041FFF7C0BB47
:108DE0002DE9F8430546C6884079144606FB00F293
:108DF000043A04EB030C1F1D624538BFD41ABE426F
:108E00008846B7FBF6F106FB117002D801392D68D0
:108E1000FCD1371AA74228BF27469CB14FF0000962
:108E20000430E41B28443A4608EB090103F0C6FB72
:108E3000A642B9442D6837464FF0000028BF2746A8
:108E4000002CEDD1BDE8F8832DE9F8430546C6882E
:108E50004079144606FB00F2043A04EB030C1F1D94
:108E6000624538BFD41ABE428846B7FBF6F106FB0E
:108E7000117002D801392D68FCD1371AA74228BFDA
:108E800027469CB14FF0000904302918E41B3A46EC
:108E900008EB090003F092FBA642B9442D6837465F
:108EA0004FF0000028BF2746002CEDD1BDE8F88325
:108EB00041DF7047064A074B10B5002414701C6050
:108EC000BFF35F8F0449054800F042F8204610BD0B
:108ED000182100201C21002094CB0200102100202A
:108EE00000B583B000230DF107008DF80730FFF7C0
:108EF00075F8F1EE103A23F09F03E1EE103ABFF35C
:108F00005F8F0B4B4022C3F884219DF80700FFF7C9
:108F10008BF803F099F928B920BF40BF20BF03B0F8
:108F20005DF804FBFFF7C4FF03B05DF804FB00BF6E
:108F300000E100E082680023936082681361826828
:108F400053618268D360826853608268136070479F
:108F500001600B6843604A68934204BF002343608A
:108F6000704700BF436843B1026891680B44436097
:108F70005268934204BF00234360704770B5446851
:108F8000064620680D4618B908E02468206828B114
:108F9000B368294698470028F7D1206828602560E3
:108FA00070BD00BF4368186808B102681A60704756
:108FB00043681868704700BF4368186818B908E02C
:108FC0000346006828B18142FAD10A681A6001207C
:108FD00070477047114910B4A1F5947205E052F83A
:108FE0003330984238BF21460CD28C1AE30F03EB82
:108FF000E4035B10914202EBC304F0D808485DF82B
:10900000044B704702D904F10802EEE76068044B94
:109010005DF8044B002808BF18467047D4D0020002
:1090200098CF020030B4B24B1B68591C04BFB14B3F
:109030001B78062B05D1B04BB04A1B68C3F3042341
:109040001360AC4B1B78062B00F0FD80A84B1B680F
:109050005A1C04BFA74B1B78062B05D1A84BA94A65
:109060001B68C3F342331360A24B1B78062B00F03E
:10907000D7809F4B1B685D1C04BF9E4B1B78062B43
:1090800008D14FF080430022C3F80C21C3F810210F
:10909000C3F83825974B1B78062B00F0A180944B22
:1090A0001A68541C24D0984B062A1B6828D0974A6B
:1090B000D2F8883043F47003C2F88830BFF34F8F82
:1090C000BFF36F8F8A4B1B68062B00F0CD804FF0EB
:1090D0001023D3F80022002AC0F24681D3F80432CC
:1090E000002BC0F241818A4B8A4A1A6030BC70471B
:1090F0008049894B09781B680629D8D1C3F303132B
:10910000033B042B40F2CA804FF08052834BD2F8CD
:109110000414C3F82015D2F80814C3F82415D2F8A3
:109120000C14C3F82815D2F81014C3F82C15D2F873
:109130001414C3F83015D2F81814C3F83415D2F843
:109140001C14C3F84015D2F82014C3F84415D2F803
:109150002414C3F84815D2F82814C3F84C15D2F8D3
:109160002C14C3F85015D2F83014C3F85415D2F8A3
:109170003414C3F86015D2F83814C3F86415D2F863
:109180003C14C3F86815D2F840145948C3F86C155C
:10919000D2F844140268C3F87015501C00F0A28085
:1091A000062A84D15E4B524A1B685E49126803F05E
:1091B0004F030B60511C77D0062A7FF478AF4FF035
:1091C0008043D3F80034DA077AD44F4B1B68033B53
:1091D000042B5DD9544A136843F48063136066E737
:1091E0004D4B1B68C3F30313033B042B3FF657AFF0
:1091F0004E4AD25C12B14E4A032111604D4AD35CF3
:10920000002B3FF44CAF4C4A4C4C4D494D4B052084
:109210001060012500203F22256008601A603EE7AB
:109220003D4B1B68C3F30313033B042B3FF621AFF5
:10923000454AD35C002B3FF41CAF444AD36823F06B
:109240008073D36015E7344B1B68C3F30313033BF0
:10925000042B3FF6FBAE3E4AD35C002B3FF4F6AE48
:109260003C4B3D4A1A60F1E6274B1B68033B042B3D
:1092700008D94FF010224FF08043D2F80822C3F8EB
:10928000582524E7354AD35C002B3FF420AFF0E7A4
:10929000334AD35C002B3FF40AAF9BE73149CB5CE8
:1092A000002B3FF47AAF2FE7124B1B78062B7FF48D
:1092B000FEAE4FF08043D3F80034DB077FF5F7AE06
:1092C0000B4B1B684FF080426FF00101062BC2F878
:1092D00000147FF4ECAE0C4B1B68033B042B3FF6F1
:1092E00079AFD5E7034B1B78062B3FF45BAFDEE687
:1092F00030010010E00F00F0240300104035014061
:10930000440200103C0500403401001000ED00E074
:10931000101900200090D003E80F00F000C00040BA
:1093200058020010E40E00403C170040ECD0020050
:10933000A0050040ECD002001056004088560040C6
:109340001856004014560040ECD00200F0ED00E04A
:10935000ECD0020074C007400DF0ADBAE4D00200BA
:10936000DCD00200D4D00200184A0123C2F8043530
:10937000D2F80034002BFBD04FF010231521134AF4
:10938000C3F80012D2F80034002BFBD04FF01023AA
:1093900015210E4AC3F80412D2F80034002BFBD07A
:1093A00000230A49C2F80435D1F80034002BFBD061
:1093B000BFF34F8F0649074BCA6802F4E0621343BC
:1093C000CB60BFF34F8F00BFFDE700BF00E001405F
:1093D00000ED00E00400FA054FF0A042044B1B5CD6
:1093E000D2F80405D840C04300F00100704700BF28
:1093F000F4D00200044B195C4FF0A04201238B40D3
:10940000C2F80C35704700BFF4D00200044B195C61
:109410004FF0A04201238B40C2F80835704700BFCF
:10942000F4D002004FF0A04310B44FF480204FF46A
:1094300000344FF400214FF48012C3F80845C3F8FC
:109440000805C3F80815C3F808255DF8044B7047F4
:109450004FF0A04310B44FF480204FF400344FF489
:1094600000214FF48012C3F80C45C3F80C05C3F873
:109470000C15C3F80C255DF8044B7047074B4FF0F3
:10948000A041185CD1F804350122824022EA030091
:109490001340C1F80805C1F80C357047F4D002003C
:1094A0000D2809D00E2809D00F2809D010280CBF8C
:1094B00003204FF0FF3070470020704701207047B5
:1094C00002207047C20730B41AD54FF0A0430322E0
:1094D000C3F844274FF40035C3F848274FF48024DD
:1094E000C3F84C274FF40021C3F850274FF48012E3
:1094F000C3F80855C3F80845C3F80815C3F808258C
:1095000083070AD54FF0A0430C22C3F83427C3F8D1
:109510003827C3F83C27C3F8402730BC704700BF4A
:1095200010B568B90E4CA368012262703BB1D3E953
:1095300000230020A2609847A368002BF7D110BD3C
:109540000128FCD1064C2369A070002BF7D0D3E989
:1095500000230120226198472369002BF7D110BD19
:109560002021002070B910B5074CA3680122627059
:109570003BB1D3E900230020A2609847A368002BE9
:10958000F7D110BD704700BF2021002030B5012861
:1095900083B004D0032821D0B0B103B030BD294C32
:1095A00000230DF107008DF80730FEF717FD237833
:1095B0006BB3E3689DF8070001330122E360A270FA
:1095C000FEF732FD03B030BD1F4B0122C3F88020EF
:1095D000BFF34F8FBFF36F8F03B030BD194C00F056
:1095E00097FD00230DF107008DF80730FEF7F6FC1C
:1095F000E368013BE360E3681BB9144BD3F8005404
:10960000C5B19DF80700FEF70FFD03B030BD10484F
:109610006360A3602361E36000F06EFD02F014FE5E
:1096200060B10A4A01232370D2F80024002AC0D076
:10963000A370BEE700F07EFDA570E2E700F068FDD4
:10964000EFE700BF2021002000E100E00000014022
:109650002195020030B585B0047845688DF800404A
:10966000D0E90240064A074B039053F82130019598
:1096700052F821108DF808406846984705B030BD73
:10968000342100203821002030B585B004784568A9
:109690008DF80040D0E90240064A074B039053F88A
:1096A0002130019552F821108DF8084068469847FE
:1096B00005B030BD3421002038210020F0B51A4B10
:1096C00090F800C0194C1A4D91F81DE044F82C2078
:1096D0000746086945F82C0003F80CE00C461646CE
:1096E0000FCC89B06D460FC594E80F0085E80F00D8
:1096F000CDF810C0BEF1000F0AD0002E0D4A694609
:1097000007F1040008BF324601F0A6FC09B0F0BD25
:10971000002E094A694607F10C0008BF324601F0E5
:109720003FFA09B0F0BD00BFB4220020382100206C
:1097300034210020559602008996020030B585B08C
:10974000047885888DF800408468ADF804508DF861
:109750000640C568074A084B8DF80750D0E9040455
:1097600053F8213052F82110CDE902046846984799
:1097700005B030BD3C210020442100202DE9F04FF0
:109780003B4E90F8008007460C463A48497B46F825
:10979000282040F8283081B0154661B9364A002D9E
:1097A0004346214607F1040008BF2A4601B0BDE840
:1097B000F04F00F083B92368304A4FF0A04603F51C
:1097C000E07340F20C6146F82310636803F5E07320
:1097D0004FF0010946F82310236809FA03F3C6F88D
:1097E0000835636809FA03F3C6F80835236803F5FA
:1097F000E07340F20D6146F82310636803F5E073EF
:1098000042EA090A46F823104FF48070D0474FF01F
:10981000000B6268D6F81035D340DB074FF4807038
:1098200022D4236809FA03F3C6F80C35D04723681D
:1098300009FA03F30BF1010BC6F808354FF48070F9
:10984000D047BBF1090FE4D1626801264FF0A0496F
:1098500006FA02F2C9F80C254FF48070D04763680D
:109860009E40C9F8086599E7BBF1000FEDD195E777
:10987000442100203C2100203D97020000D102003D
:109880000A7B0346032A0BD8DFE802F01B21270CD2
:109890008A68520304D44969D3F84C25914209D10E
:1098A000012070478A685003F2D5D3F84C25086927
:1098B0009042EDD000200622C3F80005C3F8002531
:1098C00070470969D3F84C259142F3D1E8E709695B
:1098D000D3F83C259142EDD1E2E7D3F84C25086955
:1098E0009042E7D14969D3F83C259142E2D1D7E7CC
:1098F000F0B56D4BD3F824218DB052B10022C3F8DE
:109900002421D3F824210592059AD3F80421002AB2
:109910007AD0654DD5F80431002B37D00023634C45
:10992000C5F80431236AD5F8042104925E06049A2E
:1099300004D494F82E20002A00F08F8013F0040540
:109940005BD15B4FDFF860C10FCF07AE0FC63B683E
:109950003360CCF86051DCF860310293029BCCF8A4
:109960005C51DCF85C3194F830200393039B002AAF
:109970006ED14D4B4F48504E0021C3F80012A160EC
:10998000C3F808630823C0F8803117E0474CC5F8D6
:109990004831D5F84821237B0192019A002B66D1EA
:1099A00004F10C070FCF07AE0FC694F830203B68C8
:1099B0003360002A41D0256A05F004053A49D1F800
:1099C000C434C1F8C43498070FD501238DF818307A
:1099D0000AB984F82F2015B194F82E301BB1D4E9C0
:1099E000003106A898470DB0F0BD590708D4DB0731
:1099F0004FD503238DF81830EAE794F83020DDE7DF
:109A000002238DF81830E3E7284C0222A168C3F83E
:109A10000813A260A268C3F80423D3F860211AB126
:109A2000D3F800329F0503D41F4B01221A625A61FA
:109A3000012384F82E300DB0F0BD1E4B1E48C5F832
:109A400000220821A260C5F80803C3F88011B2E71C
:109A500094F82E30002BB1D08BE728462146FFF733
:109A60000FFF80F00100236A84F82E0066E7124B96
:109A70004FF4007140F20222C5F80012A260C5F84E
:109A80000833A368C5F804330123AB602B620DB023
:109A9000F0BD94F82E301BB104238DF8183097E7F1
:109AA0008DF8183094E700BF003000404C210020B2
:109AB0005821002000E100E002029C012DE9F84F4E
:109AC00090F80490DFF8ECA0342707FB09F70AEBC5
:109AD0000706054696F82D00002857D10C46286841
:109AE000314990469B4600F045FF002859D14AF87D
:109AF0000780B060C6F804B086F82F0086F8300002
:109B0000637B86F8323023684FF0A04203F5E073A0
:109B100040F20C6142F82310636803F5E07342F8E9
:109B20002310D4E900212B68C3F80825C3F80C15CD
:109B3000A268C3F82425B8F1000F1FD02A68237B40
:109B400042F3073100294FEA123222DB01F1604172
:109B500001F561415B01DBB281F800332B6843F30F
:109B60000732002A4FEA133308DB104C0121520957
:109B700003F01F0301FA03F344F82230342303FBFC
:109B800009A9012389F82D30BDE8F88F0820BDE828
:109B9000F88F074902F00F025B011144DBB20B762C
:109BA000DCE71120BDE8F88FF198020000E100E049
:109BB000FCEC00E04C2100200379064902683420C7
:109BC00000FB03130220062183F82D00C2F80015C4
:109BD000704700BF4C2100202DE9F047DFF814C387
:109BE00090F804900468342707FB09C7002387F81E
:109BF0002E30CB6803F06043B3F1005F8AB051D1DF
:109C0000BB4BC4F8083397F82F3003F0FF0A002B42
:109C100040F0FB8012F0140F0CBF0123002387F8E3
:109C20002F30884615460E46B8E80F0007F10C0E97
:109C3000AEE80F00C5F30013D8F80020CEF80020DE
:109C40003D6287F830307378C4F88835C4F804A1D1
:109C5000D4F804310393039BC4F824A1D4F824312D
:109C60000493049BC4F860A1D4F860310593059B6C
:109C7000C4F848A1D4F848310693069B15F00103B7
:109C800018BF0123C4F8503515F0020318BF012393
:109C9000C4F840353378032B00F22E81DFE803F05F
:109CA0003A819507102738460AB0BDE8F087336936
:109CB00003F06043B3F1005FF4D14FF48073C4F854
:109CC0000032F3687268C4F844350023C4F84825AC
:109CD000C4F85031D4F8503102930123029A236220
:109CE000A360D4F85031002BFBD00027C4F850718A
:109CF000D4F85021019234233269B1680198C4F834
:109D0000442503FB09C34FF48022C4F848159A6028
:109D1000082318E0F2687368C4F84425C4F848358D
:109D20003423A90603FB09C347BF4FF480714FF4E6
:109D300080224FF400710222C4F800129A600123BD
:109D40002362002708232A0704D43278032A1CBF81
:109D50000122E250342303FB09F30CEB03025CF80D
:109D60000330002B59D06E0744BF002393606D066B
:109D700006D4342303FB09C39A6842F002029A60B6
:109D8000342101FB09CC3846DCF8083043F4007379
:109D9000CCF80830DCF80830C4F804330AB0BDE869
:109DA000F08734237168F268C4F8342503FB09C3D3
:109DB000C4F838154FF480520221C4F8002299608B
:109DC0000122002322621F46BDE77368F268C4F8CF
:109DD0004425C4F84835336903F06042B2F1005FAE
:109DE0007FF460AF3422B068C4F834354FF4845146
:109DF00002FB09C2C4F838050223C4F8001201218D
:109E000093600027082321629DE7BB68C4F80433F0
:109E1000112738460AB0BDE8F0870126D4F848215A
:109E2000EAB1D4F804212AB1C4F80431D4F80421E9
:109E30000792079AD4F8242102B30122C4F82431EE
:109E4000D4F8241109910999D4F86001D4F80012CA
:109E500070B926626661D4F84821002AE1D1D4F8AD
:109E60000421002AE0D1D4F824110029D6D0E5E756
:109E7000880522D5C80524D4002ACFD03423D4F8AD
:109E8000C424C4F8C42403FB09C3002183F82F10A1
:109E9000F2B112F0010F18BF4FF4024748F201234C
:109EA00008BF032712F0020F18BF1F4648F2022313
:109EB00012F0040F18BF1F46F5E6CA052662666158
:109EC000ACD5C4F84831D4F848210892089AA5E7DF
:109ED00069063FF5E8AE09EB490109EB810120462F
:109EE0000CEB8101FFF7CCFC002808BF0327DAE662
:109EF00002029C014C2100200823072723E700BF12
:109F00002DE9F04788B006799DF84050784F0068F9
:109F10004FF0000C3424654504FB067402F06045E4
:109F200014BF4FF02008E046B5F1005F84F82EC062
:109F300066D1704DC0F8085394F82FC00CF0FF059F
:109F4000BCF1000F68D106EB460C06EB8C0C4FEA17
:109F50008C0C0CF10C0907EB090E4FF0010A84F888
:109F60002FA007F80950CEE90135CEE903258EF878
:109F70000110C0F88815C0F80451D0F804110191FF
:109F80000199C0F82451D0F8241102910299C0F827
:109F90006051D0F8601103910399C0F84851D0F88E
:109FA00048110491049984F83050C0F85055C4F811
:109FB0002080C0F84055C0F84425C0F84835B8F1B5
:109FC000000F21D14FF400720223C0F80022A360D9
:109FD0003423012403FB06F304628460F9583B44F4
:109FE00009B39A6842F002029A609A6842F40072D9
:109FF0009A609B68C0F80433002008B0BDE8F08781
:10A00000102008B0BDE8F0874FF480724FF4802331
:10A01000C0F80022A360DBE7A368C0F80433112076
:10A0200008B0BDE8F0870B46D0F84821EAB1D0F877
:10A0300004212AB1C0F80431D0F804210592059A10
:10A04000D0F8242102B30122C0F82431D0F8241121
:10A0500007910799D0F86051D0F8001275B90462E1
:10A060004461D0F84821002AE1D1D0F80421002A27
:10A07000E0D1D0F824110029D6D0E5E78D0517D519
:10A08000C90519D4002ACFD0342303FB0676D0F8B3
:10A09000C434C0F8C434002286F82F209BB907EBE3
:10A0A0000C01FFF7EDFB002814BF00200320A8E7F8
:10A0B000CA0504624461B7D5C0F84831D0F84821D8
:10A0C0000692069AB0E713F0010F18BF4FF4024052
:10A0D00048F2012208BF032013F0020F18BF1046F8
:10A0E00048F2022213F0040F18BF104689E700BFA0
:10A0F0004C21002002029C01044A137923B901215A
:10A10000106091801846704785207047802100209C
:10A11000074B1A68D20704D4C02283F80023012217
:10A120001A604FF080430122C3F81825704700BF22
:10A1300000E100E010B40B4B0B494FF080420020CF
:10A140000224C2F8084383B018601B6801930123FE
:10A1500001980B60D2F81834DB03FBD403B05DF830
:10A16000044B7047040100400C00004010B5174B31
:10A170001A6882B062B10021154A19601B685079D3
:10A1800000934FF080410123009CC1F8083398B13F
:10A19000104B1A68BAB100221A601B6801934FF085
:10A1A000804202210A4B0198C2F808131B68012063
:10A1B00002B0BDE810401847116853718847054B3D
:10A1C0001A68002AE7D102B010BD00BF00010040AC
:10A1D0008021002004010040F0B5224C94F8583052
:10A1E00083B0002B3BD14FF0FF3121FA03F2D207AD
:10A1F00048BFE21803F1010348BF82F83010202B5A
:10A20000F3D14FF0FF334FF0FF364FF0FF3704220A
:10A21000002115482365C4E90233C4E90433C4E9C5
:10A220000633C4E90833C4E90A33C4E9006702F01D
:10A23000D3F90E4BC02283F8062340221A600C4B40
:10A240000C4A002018601B680193019D01214FF00A
:10A25000004384F85810C2F8043303B0F0BD08205E
:10A2600003B0F0BD88210020DC21002000E100E0E7
:10A270007C61004000600040034B93F858000038B8
:10A2800018BF0120704700BF88210020F0B46F4B39
:10A290001D1895F93040002C61DA8C78A707C4F3BB
:10A2A000400C53D41C6A013400F0C8805C6A01344D
:10A2B00000F0BD800C260A2453F82450013552D0FA
:10A2C000651CB5423FD253F82570013700F0A780D6
:10A2D000A51CB54237D253F82570013700F09F8096
:10A2E000E71CB7422FD253F8275001353AD0271D2B
:10A2F000B74228D253F82750013533D0671DB742F3
:10A3000021D253F8275001352CD0A71DB7421AD2BD
:10A3100053F82750013525D0E71DB74213D253F823
:10A32000275001351ED004F10807B7420BD253F86D
:10A330002750013516D00934B44204D2DC6A013406
:10A3400008BF0B240FD00420F0BC70471C680134F8
:10A3500067D05C68013460D008260224ACE708208E
:10A36000F0BC70473C461E1865B243F8242086F8BE
:10A370003050BCF1000F02D11C4484F848008A78A8
:10A38000540714D4D6073ED44C784FF0A04600F5BD
:10A39000E072A40046F822402D4EC40800F0070CDD
:10A3A000375D012202FA0CF23A4332558A7812F0F4
:10A3B00002021CD0AB0003F1804303F5C0430978CF
:10A3C000D3F8104524F4473424F44074C3F81045FE
:10A3D00002020904D3F8100501F4403102F4F852E6
:10A3E0000A430243C3F810250020F0BC7047083D23
:10A3F0002B44087893F8501041EA801183F85010EC
:10A400001046F0BC7047820002F1A042D2F800472B
:10A4100024F00204C2F80047BEE70124A3E72C465B
:10A42000A1E7002485F830401A602546A7E70926F1
:10A4300085F830605A62344635469DE7082685F82F
:10A4400030601A623446354696E700BF8821002006
:10A45000DC21002070B42C4C251883B095F93020F5
:10A46000072A1CDD224492F848309B09032B40D078
:10A47000012B0CBF4FF400334FF44033800000F148
:10A48000A040D0F8002722F44032C0F80027D0F8CE
:10A4900000271343C0F8003703B070BC7047D3B235
:10A4A000072BF9D8900000F1804000F5C04002F180
:10A4B00040039B00D0F810659BB203F1804303F585
:10A4C000C04346F00106C0F81065002018601B6804
:10A4D0000193019B0029DFD095F9303054F82330E7
:10A4E000002BD9D00949012303FA02F2C1F8042351
:10A4F000D2E74FF0A043D3F81035C34003F0010377
:10A5000002331B04BAE700BF88210020006000402E
:10A510004FF0A043D3F8103523FA00F000F001000B
:10A52000704700BFF0B585B0C84A00230193116899
:10A53000012900F0E7811E46C54B1A68012A00F088
:10A54000D381C44B1A68012A00F0C081C24B1A683B
:10A55000012A00F0AD81C14B1A68012A00F09A81EE
:10A56000BF4B1A68012A00F08781BE4B1A68012A86
:10A5700000F05D81BC4B1A68012A07D0BB4B1A68FA
:10A58000012A00F0CB81FEB905B0F0BDB84AD2F87F
:10A5900004231206F2D500221A6019680291196E7E
:10A5A0000298012903F1600346F080060CD11A607D
:10A5B0001B6803934FF0A043039AD3F82025019220
:10A5C000C3F8202546F00046AA4F00240125A30029
:10A5D00003F180432E4203F5C0434FEA45050BD0FB
:10A5E000D3F8100557F82420D3F81015C0F3042031
:10A5F000C1F3014102B190470134082CE7D1002E8C
:10A60000C2DA9C4C01254FF0A04694F95000471C3B
:10A610003DD0C0F3C20204AB1A4400F0070312F8A5
:10A620000C2C05FA03F31A42C1B200F03F002ED001
:10A63000830003F1A04305FA00FCD3F80027D3F808
:10A64000007727F44037C3F80077C2F30142D3F80C
:10A650000077022A0CBF4FF4403E4FF4003E4EEA12
:10A66000070E2718C3F800E7C6F820C597F9303061
:10A6700054F823305BB18909032900F07181022A63
:10A6800000F06B81032A02D1022900F0698194F95C
:10A690005100411C3DD0C0F3C20204AB1A4400F08B
:10A6A000070312F80C2C05FA03F31A42C1B200F0AA
:10A6B0003F002ED0830003F1A04305FA00FCD3F83D
:10A6C0000027D3F8007727F44037C3F80077C2F3A8
:10A6D0000142D3F80077022A0CBF4FF4403E4FF4FA
:10A6E000003E4EEA070E2718C3F800E7C6F820C55B
:10A6F00097F9303054F823305BB18909032900F011
:10A700002581022A00F01F81032A02D1022900F0CC
:10A710001D8194F95200421C3DD0C0F3C20204AB2B
:10A720001A4400F0070312F80C2C05FA03F31A423E
:10A73000C1B200F03F002ED0830003F1A04305FA20
:10A7400000FCD3F80027D3F8007727F44037C3F88C
:10A750000077C2F30142D3F80077022A0CBF4FF40E
:10A76000403E4FF4003E4EEA070E2718C3F800E7BC
:10A77000C6F820C597F9303054F823305BB1890909
:10A78000032900F0DE80022A00F0D880032A02D1DB
:10A79000022900F0D68094F95300431C3DD0C0F349
:10A7A000C20204AB1A4400F0070312F80C2C05FA9D
:10A7B00003F31A42C1B200F03F002ED0830003F130
:10A7C000A04305FA00FCD3F80027D3F8007727F45C
:10A7D0004037C3F80077C2F30142D3F80077022A6A
:10A7E0000CBF4FF4403E4FF4003E4EEA070E2718D0
:10A7F000C3F800E7C6F820C597F9303054F8233085
:10A800005BB18909032900F0A680022A00F0A0802C
:10A81000032A02D1022900F09E80D6F82035019348
:10A82000C6F82035002B7FF4F0AE05B0F0BD104A1D
:10A83000D2F8042351067FF59DAE00221A601B68F2
:10A840000293029B46F0400694E600BF0061004080
:10A8500004610040086100400C610040106100404C
:10A8600014610040186100401C6100407C610040A0
:10A8700000600040882100203A4AD2F80423900664
:10A880007FF573AE00221A601B680293029B46F0AC
:10A8900020066AE6334AD2F80423D4067FF560AE78
:10A8A00000221A601B680293029B46F0100657E6CE
:10A8B0002C4AD2F8042315077FF54DAE00221A600A
:10A8C0001B680293029B46F0080644E6254AD2F82C
:10A8D000042357077FF53AAE00221A601B680293E3
:10A8E000029B46F0040631E61E4AD2F80423920782
:10A8F0007FF527AE00221A601B680293029B46F088
:10A9000002061EE61749D1F8046316F001063FF46B
:10A9100013AE136013680293029B0DE600221A60C7
:10A920001B6803934FF0A043039AD3F820250192AC
:10A93000C3F82025002E3FF464AE43E601297FF4DE
:10A940002AAF984727E701297FF4E3AE9847E0E66E
:10A9500001297FF462AF98475FE701297FF497AE42
:10A96000984794E600600040014B1B68184700BF01
:10A97000E4210020114B98421DD130B583B0002353
:10A980000DF107008DF807300D46FDF727FB0C4B46
:10A990001C794CB99DF807001D6001221A71FDF762
:10A9A00043FB204603B030BD9DF80700FDF73CFB9C
:10A9B000112003B030BD0020704700BF00200040D0
:10A9C000E4210020034B984203D1034B00221A607C
:10A9D0001A71704700200040E421002030B56E4A13
:10A9E000D2F8043399058BB068D5D2F82431002B06
:10A9F00064D00023C2F82431D2F8243101934FF4FB
:10AA00000171664B0198C2F8081393F8291009B92F
:10AA100001215160604902228DF81820D1F880246C
:10AA2000C1F880249869D968099200240025CDE9ED
:10AA30000710C3E90645D3E9001206A89047564A15
:10AA4000D2F81C31C3B1554B5869196A88426AD98A
:10AA500093F8281001F0FF00002964D1C2F81C010E
:10AA6000D2F81C11039103999C68186A196A205C3A
:10AA700001311962C2F81C05474AD2F84431DBB1F2
:10AA80000021464BC2F84411D2F8440193F8291032
:10AA90000090009809B1012111609A6962B1586A69
:10AAA000D96800229A610122CDE907108DF818209B
:10AAB00006A8D3E9001290470BB030BD364AD2F851
:10AAC00004335B07BBD5D2F80831002BB7D0334B2A
:10AAD000996900293ED00021C2F80811D2F8081166
:10AAE00004910499D868596AD2F8182542545A6AD0
:10AAF000996901325A625A6A8A42A0D1DA69002AF7
:10AB000031D0DD685C6A18699A6101210022D86041
:10AB1000DA615A628DF81810CDE90754D3E90012B2
:10AB200006A890478BE71C4A0021C2F81C11D2F8F6
:10AB30001C210292029A5A69002A9DD058699A688B
:10AB40008DF8181008905961079206A8D3E90012F1
:10AB5000904791E7C2F80811D2F8080105900598CE
:10AB6000D2F81825C7E793F8292012B90A4A01211B
:10AB70005160094A4FF40171C2F80813596ADA6842
:10AB800008910024012007928DF81800D3E90012E3
:10AB90009C6106A8904752E700200040F021002069
:10ABA0002DE9F041624F06792C2303FB067382B036
:10ABB00093F82A30002B40F08D8005460C46006843
:10ABC0005C499046FFF7D6FE00287FD12368591CC8
:10ABD0000CD001224FF0A04102FA03F3C1F808356E
:10ABE000236803F5E073032241F8232063685A1CAD
:10ABF00006D003F5E0734FF0A042002142F8231085
:10AC00002B68A269C3F82425217D637D2A680B4344
:10AC1000C2F86C35D4E900122B68C3F81425C3F8C8
:10AC20000C15237D012B61D02C2303FB06F3FA18AE
:10AC3000C2F804802269FA502A68B8F1000F33D0B4
:10AC40000021237FC2F81C11D2F81C2100922A682F
:10AC5000DDF800C0C2F84411D2F844112A6801910D
:10AC6000354C0199C2F804432A6842F307310029A0
:10AC70004FEA123232DB01F1604101F561415B01C3
:10AC8000DBB281F800332A6842F30733002B4FEA26
:10AC9000123109DB294C01225B0901F01F0102FA84
:10ACA00001F144F823102A682C2303FB06760124C3
:10ACB00000230421C2F80015C6E9063386F82A40AD
:10ACC00086F82930736102B0BDE8F081112002B02E
:10ACD000BDE8F081082002B0BDE8F081184902F01B
:10ACE0000F025B011144DBB20B76CCE7A368591C61
:10ACF00006D003F5E0734FF0A042002142F8231084
:10AD0000E3685A1C0DD001224FF0A04102FA03F370
:10AD1000C1F80835E36803F5E073032241F8232006
:10AD2000E3682A68A168C2F80835C2F810157BE705
:10AD3000F0210020DDA902008000020000E100E017
:10AD4000FCEC00E0F8B5334E047902682C2303FBD9
:10AD5000046300215B68C2F80015C3B103682E4A82
:10AD6000C3F80823036843F30732002A4FEA13317C
:10AD70000EDB5209294D2032012301F01F0103FA95
:10AD800001F145F82210BFF34F8FBFF36F8F0368B7
:10AD9000D3F80CC5D3F81475D3F80815D3F81055AB
:10ADA0004FF0FF32C3F81425C3F80C25036894450F
:10ADB000C3F80825C3F8102506D00CF5E07C4FF049
:10ADC000A043022243F82C207B1C06D007F5E07735
:10ADD0004FF0A043022243F827206A1C06D005F555
:10ADE000E0754FF0A043022243F825204B1C06D00B
:10ADF00001F5E0714FF0A043022243F821200068E2
:10AE0000FFF7E0FD2C2303FB0464002384F82A30C1
:10AE10006360F8BDF02100208402020000E100E040
:10AE20002DE9F041314E05792C2303FB05630446DF
:10AE3000586984B000284CD15A619960186283F82F
:10AE400028002268C2F81C01D2F81C112268029165
:10AE50000121029F91602268D3F808C0C2F81C014A
:10AE6000D2F81C11019101991F6A196A1CF8077028
:10AE700001311962C2F81C755A6812B104B0BDE8FC
:10AE8000F0815F691A6A216897421BD9864602E001
:10AE900093F828200ABBD1F81C21002AF8D0C1F869
:10AEA0001CE1D1F81C210392039AD3F820801A6A7E
:10AEB0001CF8088001321A62C1F81C851A6A974290
:10AEC000E9D82168D1F81C31002BFBD00123CB60DD
:10AED00004E0112004B0BDE8F0810F202C2303FB17
:10AEE000056500236B6104B0BDE8F081F02100200E
:10AEF00030B5574BD3F824218BB0002A75D00022EF
:10AF0000C3F82421D3F82421049202228DF81820BA
:10AF1000049AD3F880144F4AC3F880140991D3F8E7
:10AF20003C15D3680891002400250793C2E9064523
:10AF30001168536806A89847454BD3F8442152B18D
:10AF40000021444AC3F84411D3F8440191690390A5
:10AF50000398002938D13E4BD3F820215AB1002163
:10AF6000C3F82011D3F8202102920120394A029C13
:10AF7000D8605069D8B9364BD3F85821AAB100210E
:10AF8000C3F85811D3F85801324A0190019850691A
:10AF900058B1D3F84C05936808908DF8181051619A
:10AFA000079306A8D2E9001398470BB030BDD3F839
:10AFB0004C05936808908DF818105161079306A806
:10AFC000D2E900139847D6E7D3F83C35D168089307
:10AFD00000240025012307918DF81830C2E90645A9
:10AFE000D2E9001306A89847B5E7D3F81011002955
:10AFF000A2D0C3F81021D3F8101116480591059975
:10B000008469D3F83C15A14296D1C469A4B1D3F8A0
:10B010000052846125F02005C3F80052D0E90343B3
:10B02000C26101220891C3600168436807948DF8EA
:10B03000182006A898477FE7C26884610123CDE9FC
:10B0400007218DF81830D0E9001306A8984773E758
:10B0500000200040202200202DE9F0430779704EA7
:10B0600007EBC70306EB830387B093F82030002B70
:10B0700040F0A78004460D4600686A499146FFF7F4
:10B0800079FC002840F099802B68591C4FEAC708CA
:10B090000CD001224FF0A04102FA03F3C1F80835A9
:10B0A0002B6803F5E073032241F823206B685A1CD8
:10B0B00006D003F5E0734FF0A042002142F82310C0
:10B0C0002368A969C3F82415297D6A7D23680A438A
:10B0D000C3F86C25D5E900312268C2F80C35C2F8F6
:10B0E00014152B7D012B78D008EB070206EB8203A9
:10B0F000C3F804902B6946F82230B9F1000F4BD009
:10B1000021682B7F484D0022C1F81021D1F8101181
:10B1100001912168DDF804C0C1F82021D1F8201187
:10B1200002912168DDF808C0C1F82421D1F824116A
:10B1300003912168DDF80CC0C1F84421D1F8441115
:10B1400004912168DDF810C0C1F85821D1F85811D8
:10B15000226805910599C2F80453226842F3073129
:10B1600000294FEA123230DB01F1604101F5614103
:10B170005B01DBB281F80033226842F30733002B16
:10B180004FEA123109DB294D01225B0901F01F0151
:10B1900002FA01F145F823102268474406EB8706BE
:10B1A000002301240821C2F80015C6E9063386F8F9
:10B1B0002040736107B0BDE8F083112007B0BDE8FF
:10B1C000F083082007B0BDE8F083194902F00F02B0
:10B1D0005B011144DBB20B76CEE7AB68591C06D09D
:10B1E00003F5E0734FF0A042002142F82310EB6812
:10B1F0005A1C0DD001224FF0A04102FA03F3C1F80E
:10B200000835EB6803F5E073032241F82320EB686F
:10B210002268A968C2F80835C2F8101564E700BFB3
:10B2200020220020F1AE02001003420000E100E005
:10B23000FCEC00E02DE9F04105794B4C05EBC50332
:10B2400004EB830301465B68006882B0EE00C3B183
:10B25000464BC0F808330B6843F30732002A4FEA25
:10B2600013330EDB5209DFF808C12032012703F047
:10B270001F0307FA03F34CF82230BFF34F8FBFF3DD
:10B280006F8F721904EB8202D0F80032926923F0BA
:10B290002003C0F8003242B10023C0F84431D0F896
:10B2A000443100930123009A43600023C0F85831D1
:10B2B000D0F8583101937319012204EB8303019FE5
:10B2C000C2609A69D0F85831002BFBD01AB1D0F87F
:10B2D0004431002BF6D00023C0F800350B684FF046
:10B2E000FF32D3F80C85D3F814E5D3F80875D3F8FA
:10B2F00010C5C3F80C25C3F814250B689045C3F896
:10B300000825C3F8102506D008F5E0784FF0A043D3
:10B31000022243F82820BEF1FF3F06D00EF5E07E62
:10B320004FF0A043022243F82E20BCF1FF3F06D08D
:10B330000CF5E07C4FF0A043022243F82C207B1C4C
:10B3400006D007F5E0774FF0A043022243F827200C
:10B35000FFF738FB354404EB8504002384F82030E4
:10B36000636002B0BDE8F08120220020100342009B
:10B3700000E100E0F0B401F06044B4F1005F82B09D
:10B380002CD10579274E05EBC50406EB8404034652
:10B390006069EF0000283ED16261A1601A68C2F8BE
:10B3A0002001D2F820C11A68CDF804C0DDF804C02D
:10B3B000C2F85801D2F8582100921A68DDF800C08E
:10B3C000D4F814C0C2F84415C2F848C51A6801215F
:10B3D0009160626832B102B0F0BC7047102002B0D8
:10B3E000F0BC70471A6800E0C8B9D2F82011D2F852
:10B3F00058010029F8D090B90121D1601B68D3F819
:10B400005821002AFBD07B1906EB830300225A61E6
:10B4100002B0F0BC7047112002B0F0BC70470F20A2
:10B42000F1E700BF202200200220FEF727B800BF6E
:10B430002DE9F0470D460646FEF732F8032805D8F9
:10B44000012D04461AD0022D27D00DB1BDE8F0879A
:10B450001B48FCF785FD1B4B1B4A04EB44010B44C6
:10B46000125D9D78AA42F1D1002DEFD0174B1B68D9
:10B47000002BEBD02846BDE8F0471847114F00EBF2
:10B480004003FA18FD5C53784FEA40085BB9A044CA
:10B4900047440D4BBA781A55E6E70A4B00EB4004D7
:10B4A0001C446578E0E7DFF8289005484A464FF4E9
:10B4B0008041FCF7F7FC0028E9D189F80060E6E755
:10B4C0003819002048220020642200205C2200203D
:10B4D0004422002010B50078FDF7E2FF03280BD8C6
:10B4E000064B00EB40001844407828B1044B1B6821
:10B4F00013B1BDE81040184710BD00BF482200201E
:10B500005C22002038B5C04D2B7804466BB1BF4B90
:10B510001B7800202870002B4DD0FDF777FF01200D
:10B52000FDF774FF0320FDF771FF172C00F26A810D
:10B53000DFE814F0F700630063009F00B200C5006D
:10B54000D700970050004400500044007A001800D3
:10B550001800180018001800E500240181000C01F3
:10B560005C005C00AA48FCF7FBFCD4F11104054622
:10B5700000F03281002840F02F81012C14D0C82324
:10B5800003FB04F44FF47A704FF400430021C3FB33
:10B5900004014FF4FA62002301F080F82A460146C4
:10B5A0009B48FCF77FFC05460220FDF723FF974BE5
:10B5B00001221A701FE0FDF735FFB6E70120287061
:10B5C000FDF75CFFBDE83840924800224FF400517F
:10B5D000FCF768BC01202870FDF750FFBDE838403B
:10B5E0008C48002240F26661FCF75CBCFDF730FF3E
:10B5F000894B00251C70284638BD0020FDF7ECFE65
:10B60000002840F0CF80FDF7F5FE40F6CD4141F631
:10B610009A13022C18BF19467F4B7E481C70BDE858
:10B6200038400022FCF73EBCFDF712FF7A4B0C229B
:10B630001A700025DFE7754B1B78002B00F0DF80C8
:10B640000020FDF7E3FE0120FDF7E0FE0320FDF7FB
:10B65000DDFE0120FDF7CEFE6F4B14221A7000258F
:10B66000C9E70020FDF7C6FE6B4B07221A700025C4
:10B67000C1E70020FDF7B0FE002840F0A780FDF7ED
:10B68000B9FE40F6CD41644B624803241C70BDE80E
:10B6900038400022FCF706BC0020FDF79DFE002884
:10B6A00040F08E80FDF7A6FE41F69A115A4B59489C
:10B6B00004241C70BDE838400022FCF7F3BB0020D6
:10B6C000FDF78AFE002877D1FDF794FE524B5148D2
:10B6D00005241C70BDE83840002240F6CD41FCF73F
:10B6E000E1BB0020FDF7CAFE4B4B4A4806241C7004
:10B6F000BDE83840002240F26661FCF7D3BB434B03
:10B700001B78002B78D00020FDF780FE0120FDF78C
:10B710007DFE0320FDF77AFE3F4B12221A700025B2
:10B7200069E73A4B1B78002B60D00020FDF76EFED6
:10B730000120FDF76BFE0320FDF768FE3548FCF79E
:10B740000FFC354B002205461A7054E72F4B1B782F
:10B75000002B48D00020FDF759FE0120FDF756FED2
:10B760000320FDF753FE0020FDF744FE0120FDF706
:10B7700041FE294B15221A7000253CE7234B1B780C
:10B78000BBB30020FDF742FE0120FDF73FFE032082
:10B79000FDF73CFE0020FDF72DFE1F4B13221A7013
:10B7A000002528E70020FDF731FE022C47F2333157
:10B7B00018BF4FF480312FE70020FDF727FE85E703
:10B7C0000020FDF723FE4FF480316FE70020FDF7E6
:10B7D0001DFE43F2333156E70220FDF717FE0B4BF7
:10B7E00000221A7007E7FDF71DFEBCE7FDF71AFE01
:10B7F000A4E7FDF717FECDE7FDF714FE8CE7FDF794
:10B8000011FE26E70025F6E65822002045220020FA
:10B81000181900205819002060220020044B1B68D2
:10B82000DB0700D47047034B1878FFF76BBE00BFEF
:10B830005422002060220020044B1B6813F00103F7
:10B8400001D118467047FFF75DBE00BF54220020AB
:10B8500038B5244B244A196081070446106004D48B
:10B8600010F001052CD1284638BD204B20480E256C
:10B870000F2210211D701125DA7099715D7240F24E
:10B8800033320421FCF74AF8054630B1E207EAD525
:10B890000120FDF717FE284638BDFCF79FF8054646
:10B8A0000028F3D10146134A1348FCF7E5FAE307F1
:10B8B0000546D8D50120FDF705FE002DD3D102E0C5
:10B8C0000120FDF7FFFD0D4A0D480021FCF7D4FAD9
:10B8D00005460028C7D1BDE838400A4A0A48012178
:10B8E000FCF7CABA5C220020542200204822002023
:10B8F00034D10200D5B4020058D102001DB80200B4
:10B900005CD1020029B4020054D1020072DF7047FA
:10B9100073DF7047704700BF30B5324A324D13783D
:10B9200097B005218DF8043001331370ADF8101075
:10B93000FAF72EFEFAF754FE322445F001054FF4D3
:10B940007A40A847013CFAD107A8FAF7A5FEDDE93D
:10B950000723190E8DF8062042F307228DF80520E3
:10B960008DF807101A0A01A91D0C8DF80A308DF800
:10B97000092009233C22069107A82146ADF814307E
:10B980008DF8085000F028FE184A8DF81C4004ABD2
:10B99000042452F8041B8DF81F4007A8109300F0F0
:10B9A000BFF988B9124A11491248FFF7AFFFA8B989
:10B9B000104B01211878FFF7ABFF60B90220FFF7A9
:10B9C0003BFF20B917B030BDFCF71EF8EAE7FCF7E3
:10B9D0001BF817B030BDFCF717F8EFE7FCF714F8C9
:10B9E000E6E700BF6822002090D10200781900200D
:10B9F0006C22002088190020D0B584B04FF0CC71A3
:10BA000000230D260E27022402910D4A0D488DF8C1
:10BA10000F306946CDE90067ADF80D308DF80C4068
:10BA2000FDF7ACFE20B90848FEF7C6F804B0D0BD5B
:10BA3000FBF7EAFF0448FEF7BFF804B0D0BD00BF33
:10BA4000BD6202009CD10200A0D1020000B5084BEB
:10BA5000084A93E8030083B0002300908DF8041097
:10BA600005486946FAF770FC03B05DF804FB00BFB7
:10BA700084D1020015B902009CD1020080B54FF4B8
:10BA8000804196B00020FBF77DF8002840F08D80C3
:10BA9000FBF768F8FCF7BAF9002840F0AA80564A8C
:10BAA00056480121FCF7E8F9002840F09F8000216A
:10BAB0000120FFF7CDFE002840F09580FDF7FAF950
:10BAC000002840F08D8000F033FB002840F0858096
:10BAD000002307A90120079300F006FC002879D174
